{
  "exp_d2g0v0_Cancun" : {
      "_info" : {
          "comment" : "Ori Pomerantz qbzzt1@gmail.com",
          "filling-rpc-server" : "evm version 1.14.4-unstable-3d8028a6-20240513",
          "filling-tool-version" : "retesteth-0.3.2-cancun+commit.cae6bc33.Linux.g++",
          "generatedTestHash" : "bcdce8909c4c5975c16026c2b26d6ca473029995aed25dc90a165f50fd57ae24",
          "lllcversion" : "Version: 0.5.14-develop.2023.7.11+commit.c58ab2c6.mod.Linux.g++",
          "solidity" : "Version: 0.8.21+commit.d9974bed.Linux.g++",
          "source" : "src/GeneralStateTestsFiller/VMTests/vmArithmeticTest/expFiller.yml",
          "sourceHash" : "61665f3fe483eedab013a754393e2b3fa80aabfd6bde9f448fb167bf7e70a798"
      },
      "blocks" : [
          {
              "blockHeader" : {
                  "baseFeePerGas" : "0x0a",
                  "blobGasUsed" : "0x00",
                  "bloom" : "0x00000000000000000000000000000000000000000000000000000000000000000000000000000000000000000000000000000000000000000000000000000000000000000000000000000000000000000000000000000000000000000000000000000000000000000000000000000000000000000000000000000000000000000000000000000000000000000000000000000000000000000000000000000000000000000000000000000000000000000000000000000000000000000000000000000000000000000000000000000000000000000000000000000000000000000000000000000000000000000000000000000000000000000000000000000000",
                  "coinbase" : "0x2adc25665018aa1fe0e6bc666dac8fc2697ff9ba",
                  "difficulty" : "0x00",
                  "excessBlobGas" : "0x00",
                  "extraData" : "0x00",
                  "gasLimit" : "0x05f5e100",
                  "gasUsed" : "0xb449",
                  "hash" : "0x4447205a3896bbf869c00f7dd2525cfee415d44bebaafeae1645b322ea9bb79b",
                  "mixHash" : "0x0000000000000000000000000000000000000000000000000000000000020000",
                  "nonce" : "0x0000000000000000",
                  "number" : "0x01",
                  "parentBeaconBlockRoot" : "0x0000000000000000000000000000000000000000000000000000000000000000",
                  "parentHash" : "0x62404976f2d8a2365bc2396e88b25e424fc9b0e4d6d9c3658c7f04326e3793d6",
                  "receiptTrie" : "0x66095deb22f150c906a52c331ede7fcbb09d444d3b55f8868c19f44c12112503",
                  "stateRoot" : "0x667b893169209d7bc7d308df67a4a8e1b8a277571815b84c7d5e624563126ee7",
                  "timestamp" : "0x03e8",
                  "transactionsTrie" : "0x8227f467ccb6cdecf574bb5ce623a2d81735ca00cb740aac43f73d428c59becb",
                  "uncleHash" : "0x1dcc4de8dec75d7aab85b567b6ccd41ad312451b948a7413f0a142fd40d49347",
                  "withdrawalsRoot" : "0x56e81f171bcc55a6ff8345e692c0f86e5b48e01b996cadc001622fb5e363b421"
              },
              "rlp" : "0xf902c8f9023aa062404976f2d8a2365bc2396e88b25e424fc9b0e4d6d9c3658c7f04326e3793d6a01dcc4de8dec75d7aab85b567b6ccd41ad312451b948a7413f0a142fd40d49347942adc25665018aa1fe0e6bc666dac8fc2697ff9baa0667b893169209d7bc7d308df67a4a8e1b8a277571815b84c7d5e624563126ee7a08227f467ccb6cdecf574bb5ce623a2d81735ca00cb740aac43f73d428c59becba066095deb22f150c906a52c331ede7fcbb09d444d3b55f8868c19f44c12112503b901000000000000000000000000000000000000000000000000000000000000000000000000000000000000000000000000000000000000000000000000000000000000000000000000000000000000000000000000000000000000000000000000000000000000000000000000000000000000000000000000000000000000000000000000000000000000000000000000000000000000000000000000000000000000000000000000000000000000000000000000000000000000000000000000000000000000000000000000000000000000000000000000000000000000000000000000000000000000000000000000000000000000000000000000000000000080018405f5e10082b4498203e800a000000000000000000000000000000000000000000000000000000000000200008800000000000000000aa056e81f171bcc55a6ff8345e692c0f86e5b48e01b996cadc001622fb5e363b4218080a00000000000000000000000000000000000000000000000000000000000000000f887f885800a8404c4b40094cccccccccccccccccccccccccccccccccccccccc01a4693c613900000000000000000000000000000000000000000000000000000000000000021ba0fc37ad4eb0633eb18f2b7867bacbe994a2ffcbb04a71e394e6e76041f6ce216fa03b1b415a5c386d8de9e16be9fdc188234b80a0dec99922d03c240f2e463053e3c0c0",
              "transactions" : [
                  {
                      "data" : "0x693c61390000000000000000000000000000000000000000000000000000000000000002",
                      "gasLimit" : "0x04c4b400",
                      "gasPrice" : "0x0a",
                      "nonce" : "0x00",
                      "r" : "0xfc37ad4eb0633eb18f2b7867bacbe994a2ffcbb04a71e394e6e76041f6ce216f",
                      "s" : "0x3b1b415a5c386d8de9e16be9fdc188234b80a0dec99922d03c240f2e463053e3",
                      "sender" : "0xa94f5374fce5edbc8e2a8697c15331677e6ebf0b",
                      "to" : "0xcccccccccccccccccccccccccccccccccccccccc",
                      "v" : "0x1b",
                      "value" : "0x01"
                  }
              ],
              "uncleHeaders" : [
              ],
              "withdrawals" : [
              ]
          }
      ],
      "genesisBlockHeader" : {
          "baseFeePerGas" : "0x0b",
          "blobGasUsed" : "0x00",
          "bloom" : "0x00000000000000000000000000000000000000000000000000000000000000000000000000000000000000000000000000000000000000000000000000000000000000000000000000000000000000000000000000000000000000000000000000000000000000000000000000000000000000000000000000000000000000000000000000000000000000000000000000000000000000000000000000000000000000000000000000000000000000000000000000000000000000000000000000000000000000000000000000000000000000000000000000000000000000000000000000000000000000000000000000000000000000000000000000000000",
          "coinbase" : "0x2adc25665018aa1fe0e6bc666dac8fc2697ff9ba",
          "difficulty" : "0x00",
          "excessBlobGas" : "0x060000",
          "extraData" : "0x00",
          "gasLimit" : "0x05f5e100",
          "gasUsed" : "0x00",
          "hash" : "0x62404976f2d8a2365bc2396e88b25e424fc9b0e4d6d9c3658c7f04326e3793d6",
          "mixHash" : "0x0000000000000000000000000000000000000000000000000000000000020000",
          "nonce" : "0x0000000000000000",
          "number" : "0x00",
          "parentBeaconBlockRoot" : "0x0000000000000000000000000000000000000000000000000000000000000000",
          "parentHash" : "0x0000000000000000000000000000000000000000000000000000000000000000",
          "receiptTrie" : "0x56e81f171bcc55a6ff8345e692c0f86e5b48e01b996cadc001622fb5e363b421",
          "stateRoot" : "0xc729f3f27523b160e106daf94a31aff1d02a2f6d6db91bcea21b905987566ba2",
          "timestamp" : "0x00",
          "transactionsTrie" : "0x56e81f171bcc55a6ff8345e692c0f86e5b48e01b996cadc001622fb5e363b421",
          "uncleHash" : "0x1dcc4de8dec75d7aab85b567b6ccd41ad312451b948a7413f0a142fd40d49347",
          "withdrawalsRoot" : "0x56e81f171bcc55a6ff8345e692c0f86e5b48e01b996cadc001622fb5e363b421"
      },
      "genesisRLP" : "0xf9023ff90239a00000000000000000000000000000000000000000000000000000000000000000a01dcc4de8dec75d7aab85b567b6ccd41ad312451b948a7413f0a142fd40d49347942adc25665018aa1fe0e6bc666dac8fc2697ff9baa0c729f3f27523b160e106daf94a31aff1d02a2f6d6db91bcea21b905987566ba2a056e81f171bcc55a6ff8345e692c0f86e5b48e01b996cadc001622fb5e363b421a056e81f171bcc55a6ff8345e692c0f86e5b48e01b996cadc001622fb5e363b421b901000000000000000000000000000000000000000000000000000000000000000000000000000000000000000000000000000000000000000000000000000000000000000000000000000000000000000000000000000000000000000000000000000000000000000000000000000000000000000000000000000000000000000000000000000000000000000000000000000000000000000000000000000000000000000000000000000000000000000000000000000000000000000000000000000000000000000000000000000000000000000000000000000000000000000000000000000000000000000000000000000000000000000000000000000000000080808405f5e100808000a000000000000000000000000000000000000000000000000000000000000200008800000000000000000ba056e81f171bcc55a6ff8345e692c0f86e5b48e01b996cadc001622fb5e363b4218083060000a00000000000000000000000000000000000000000000000000000000000000000c0c0c0",
      "lastblockhash" : "0x4447205a3896bbf869c00f7dd2525cfee415d44bebaafeae1645b322ea9bb79b",
      "network" : "Cancun",
      "postState" : {
          "0x0000000000000000000000000000000000001000" : {
              "balance" : "0x0ba1a9ce0ba1a9ce",
              "code" : "0x600260020a60005500",
              "nonce" : "0x00",
              "storage" : {
              }
          },
          "0x0000000000000000000000000000000000001001" : {
              "balance" : "0x0ba1a9ce0ba1a9ce",
              "code" : "0x7ffffffffffffffffffffffffffffffffffffffffffffffffffffffffffffffffe7fffffffffffffffffffffffffffffffffffffffffffffffffffffffffffffffff0a60005500",
              "nonce" : "0x00",
              "storage" : {
              }
          },
          "0x0000000000000000000000000000000000001002" : {
              "balance" : "0x0ba1a9ce0ba1a9ce",
              "code" : "0x637fffffff637fffffff0a60005500",
              "nonce" : "0x00",
              "storage" : {
                  "0x00" : "0xbc8cccccccc888888880000000aaaaaab00000000fffffffffffffff7fffffff"
              }
          },
          "0x0000000000000000000000000000000000001003" : {
              "balance" : "0x0ba1a9ce0ba1a9ce",
              "code" : "0x637fffffff60000a60005500",
              "nonce" : "0x00",
              "storage" : {
              }
          },
          "0x0000000000000000000000000000000000001004" : {
              "balance" : "0x0ba1a9ce0ba1a9ce",
              "code" : "0x6000637fffffff0a60005500",
              "nonce" : "0x00",
              "storage" : {
              }
          },
          "0x0000000000000000000000000000000000001005" : {
              "balance" : "0x0ba1a9ce0ba1a9ce",
              "code" : "0x60016101010a60005500",
              "nonce" : "0x00",
              "storage" : {
              }
          },
          "0x0000000000000000000000000000000000001006" : {
              "balance" : "0x0ba1a9ce0ba1a9ce",
              "code" : "0x61010160010a60005500",
              "nonce" : "0x00",
              "storage" : {
              }
          },
          "0x0000000000000000000000000000000000001007" : {
              "balance" : "0x0ba1a9ce0ba1a9ce",
              "code" : "0x61010160020a60005500",
              "nonce" : "0x00",
              "storage" : {
              }
          },
          "0x0000000000000000000000000000000000001008" : {
              "balance" : "0x0ba1a9ce0ba1a9ce",
              "code" : "0x600060000a60005500",
              "nonce" : "0x00",
              "storage" : {
              }
          },
          "0x0000000000000000000000000000000000001009" : {
              "balance" : "0x0ba1a9ce0ba1a9ce",
              "code" : "0x660100000000000f60020a60005500",
              "nonce" : "0x00",
              "storage" : {
              }
          },
          "0x000000000000000000000000000000000000100a" : {
              "balance" : "0x0ba1a9ce0ba1a9ce",
              "code" : "0x600f60020a60005500",
              "nonce" : "0x00",
              "storage" : {
              }
          },
          "0x000f3df6d732807ef1319fb7b8bb8522d0beac02" : {
              "balance" : "0x00",
              "code" : "0x3373fffffffffffffffffffffffffffffffffffffffe14604d57602036146024575f5ffd5b5f35801560495762001fff810690815414603c575f5ffd5b62001fff01545f5260205ff35b5f5ffd5b62001fff42064281555f359062001fff015500",
              "nonce" : "0x01",
              "storage" : {
                  "0x03e8" : "0x03e8"
              }
          },
          "0xa94f5374fce5edbc8e2a8697c15331677e6ebf0b" : {
              "balance" : "0x0ba1a9ce0b9a9ef3",
              "code" : "0x",
              "nonce" : "0x01",
              "storage" : {
              }
          },
          "0xcccccccccccccccccccccccccccccccccccccccc" : {
              "balance" : "0x0ba1a9ce0ba1a9cf",
              "code" : "0x600060006000600060006004356110000162fffffff100",
              "nonce" : "0x00",
              "storage" : {
              }
          }
      },
      "pre" : {
          "0x0000000000000000000000000000000000001000" : {
              "balance" : "0x0ba1a9ce0ba1a9ce",
              "code" : "0x600260020a60005500",
              "nonce" : "0x00",
              "storage" : {
              }
          },
          "0x0000000000000000000000000000000000001001" : {
              "balance" : "0x0ba1a9ce0ba1a9ce",
              "code" : "0x7ffffffffffffffffffffffffffffffffffffffffffffffffffffffffffffffffe7fffffffffffffffffffffffffffffffffffffffffffffffffffffffffffffffff0a60005500",
              "nonce" : "0x00",
              "storage" : {
              }
          },
          "0x0000000000000000000000000000000000001002" : {
              "balance" : "0x0ba1a9ce0ba1a9ce",
              "code" : "0x637fffffff637fffffff0a60005500",
              "nonce" : "0x00",
              "storage" : {
              }
          },
          "0x0000000000000000000000000000000000001003" : {
              "balance" : "0x0ba1a9ce0ba1a9ce",
              "code" : "0x637fffffff60000a60005500",
              "nonce" : "0x00",
              "storage" : {
              }
          },
          "0x0000000000000000000000000000000000001004" : {
              "balance" : "0x0ba1a9ce0ba1a9ce",
              "code" : "0x6000637fffffff0a60005500",
              "nonce" : "0x00",
              "storage" : {
              }
          },
          "0x0000000000000000000000000000000000001005" : {
              "balance" : "0x0ba1a9ce0ba1a9ce",
              "code" : "0x60016101010a60005500",
              "nonce" : "0x00",
              "storage" : {
              }
          },
          "0x0000000000000000000000000000000000001006" : {
              "balance" : "0x0ba1a9ce0ba1a9ce",
              "code" : "0x61010160010a60005500",
              "nonce" : "0x00",
              "storage" : {
              }
          },
          "0x0000000000000000000000000000000000001007" : {
              "balance" : "0x0ba1a9ce0ba1a9ce",
              "code" : "0x61010160020a60005500",
              "nonce" : "0x00",
              "storage" : {
              }
          },
          "0x0000000000000000000000000000000000001008" : {
              "balance" : "0x0ba1a9ce0ba1a9ce",
              "code" : "0x600060000a60005500",
              "nonce" : "0x00",
              "storage" : {
              }
          },
          "0x0000000000000000000000000000000000001009" : {
              "balance" : "0x0ba1a9ce0ba1a9ce",
              "code" : "0x660100000000000f60020a60005500",
              "nonce" : "0x00",
              "storage" : {
              }
          },
          "0x000000000000000000000000000000000000100a" : {
              "balance" : "0x0ba1a9ce0ba1a9ce",
              "code" : "0x600f60020a60005500",
              "nonce" : "0x00",
              "storage" : {
              }
          },
          "0x000f3df6d732807ef1319fb7b8bb8522d0beac02" : {
              "balance" : "0x00",
              "code" : "0x3373fffffffffffffffffffffffffffffffffffffffe14604d57602036146024575f5ffd5b5f35801560495762001fff810690815414603c575f5ffd5b62001fff01545f5260205ff35b5f5ffd5b62001fff42064281555f359062001fff015500",
              "nonce" : "0x01",
              "storage" : {
              }
          },
          "0xa94f5374fce5edbc8e2a8697c15331677e6ebf0b" : {
              "balance" : "0x0ba1a9ce0ba1a9ce",
              "code" : "0x",
              "nonce" : "0x00",
              "storage" : {
              }
          },
          "0xcccccccccccccccccccccccccccccccccccccccc" : {
              "balance" : "0x0ba1a9ce0ba1a9ce",
              "code" : "0x600060006000600060006004356110000162fffffff100",
              "nonce" : "0x00",
              "storage" : {
              }
          }
      },
      "sealEngine" : "NoProof"
  }
}